:020000040000FA
:030000000200FCFF
:0300530002052C77
:100083000205F400000080FB12010BB9000302001B
:10009300F6E490F1FF785479018002F0A3D8FCD9FB
:1000A300FA90F252AA82AB8390010E780C79018008
:1000B30015E493A3AC82AD838A828B83F0A3AA82D7
:1000C300AB838C828D83D8E9D9E790F1FFAA82AB09
:1000D3008390010E780179018015E493A3AC82AD7E
:1000E300838A828B83F0A3AA82AB838C828D83D88D
:1000F300E9D9E712039112008675D0007581C075A6
:1001030010FF7511F102008B790122010010FFFF2E
:10011300FFFF00000000E066701008A3E066700AAD
:1001230008A3E066700408A3E066226016080808C6
:10013300C6C313C618C613C618C613C618C613C635
:10014300D5E0EA22E627F60809E637F60809E63796
:10015300F60809E637F622E026F608A3E036F608A5
:10016300A3E036F608A3E036F622700422600D18E9
:10017300C6C333C608C633C6D5E0F418222510C556
:1001830082C0E0E51134FFC583C0E0E510C395826A
:1001930024F9F8E4C5A8858311858210C5A8E8CEA3
:1001A300F0A3E520F0A37808E608F0A3DEFAEFF069
:1001B300A3E58124FBF8E608F0A3E608F0A308080A
:1001C300E608F0A3E608F0A315811581D0E0FED080
:1001D300E0F815811581E8C0E0EEC0E022851183C7
:1001E300851082E0A3FEE0A3F5207808E0A3F608DB
:1001F300DFFAE0A3FFE0A3C0E0E0A3C0E0E0A3C018
:10020300E0E0A3C0E0E4C5A8858210858311C5A8FA
:10021300D083D08222C082C0838A828B83A3A3A38C
:10022300A3A3A3A3E054FCF08A828B83A3A3A3A379
:10023300A3A3A3E0C2E2F08A828B83A3A3A3A3A315
:10024300A3A3E0C2E3F08A828B83A3A3A3A3A3A304
:10025300E054E044138A828B83A3A3A3A3A3A3F054
:100263008A828B83A3A3A3A3A3A3E0549FF08A82D0
:100273008B83A3A3A3A3A3A3E0C2E7F074106970C5
:100283007F79F1E98A828B83F074FF8A828B83A35F
:10029300F074DF8A828B83A3A3F074D98A828B8361
:1002A300A3A3A3F08A828B83A3A3A3A3E0541F4435
:1002B300208A828B83A3A3A3A3F08A828B83A3A325
:1002C300A3A3E054E0F0741B8A828B83A3A3A3A3AC
:1002D300A3F08A828B83A3A3A3A3A3A3A3E0543F86
:1002E30044408A828B83A3A3A3A3A3A3A3F08A82FC
:1002F3008B83A3A3A3A3A3A3A3E054CFF0020384FC
:10030300742069707C74DF8A828B83F074D98A824B
:100313008B83A3F079F1E98A828B83A3A3F074FF23
:100323008A828B83A3A3A3F08A828B83A3A3A3A331
:10033300E0541F44808A828B83A3A3A3A3F08A8201
:100343008B83A3A3A3A3E054E0F0741D8A828B8361
:10035300A3A3A3A3A3F08A828B83A3A3A3A3A3A38F
:10036300A3E0543FF08A828B83A3A3A3A3A3A3A3F5
:10037300E054CF44108A828B83A3A3A3A3A3A3A394
:10038300F0EBF9E9F5D3EAF5D2D083D082227400F9
:1003930090F21CF0801D74CCC0E090F21CE0790058
:1003A300241DF582E934F2F583D0E0F090F21CE0ED
:1003B3002401F090F21CE0C3941E40DA740590DF30
:1003C30004F0740E90DF07F0742190DF09F0746578
:1003D30090DF0AF0746A90DF0BF0740E90DF0CF07C
:1003E300743B90DF0DF0747390DF0EF0744290DF76
:1003F3000FF0740090DF11F0743590DF13F0740880
:1004030090DF14F0741D90DF15F0741C90DF16F06C
:1004130074C790DF17F0740090DF18F074B090DFAA
:1004230019F074B690DF1AF074EA90DF1CF0742AA6
:1004330090DF1DF0740090DF1EF0741F90DF1FF03B
:10044300743190DF24F0740990DF25F074C290DFDB
:100453002EF0740690DF31F0790012062374C7552D
:10046300C64408F5C653F4F6E5F4D290D29343FE9E
:1004730009E5FE439E10D2BAD2AF759D0274FC55B6
:100483009E4404F59E740190F23EF0D29090F23CAB
:10049300E0600B1204BF740090F23CF0C29090F243
:1004A3003EE060E91205E8740090F23EF080DE431E
:1004B300C9A0E5C963C9F0E5C9790122C082C08337
:1004C300740690F21DF090F254E090F21EF090F258
:1004D3001EE0D2E0F090F23BE090F21FF074079040
:1004E300F220F090F252A3E0F9E990F221F090F2B9
:1004F30052E090F222F07C3F7DF27A1D7BF21205EE
:100503006EE96401701990F252E02401F0A3E03423
:1005130000F0639001E5901204B2E9700780F8637C
:100523009008E590D083D08222C0E0C0D0C082C0C2
:100533008390F23BE02401F090F23BE0640170060B
:10054300740190F23CF090F23BE0C39408400C74C9
:100553000090F23BF0740190F23EF090F23DE02403
:1005630001F0D083D082D0D0D0E03274F712018072
:10057300EAFEEBFFECFAEDFB741090F251F0791008
:100583001202187401459AFA8A9A759110D2AF7BB8
:100593000080278B08750900EE2508F582EF3509E1
:1005A300F583E0C0E08B08750900E50824FFF582B8
:1005B300E50934F1F583D0E0F00BEBC0E08E828FD8
:1005C30083E0FAD0E0C39A40CA43D60275E10390B0
:1005D300F24FE060FA740090F24FF043D680790155
:1005E3007F020201E075E10475E10179011206461B
:1005F30022C0E0C0D0C082C08353E9EF539BFCE527
:100603009B90F251E064207008740190F250F080E6
:1006130006740190F24FF0D083D082D0D0D0E03274
:10062300E9600D43C640E5BEA2E550FA43BE04228D
:1006330053BEFBE5BEA2E650FA0053C680E5C643AF
:10064300BE042274F1120180E96073890875090000
:100653007407780812016DE4F50AF50BE9F50C75DA
:100663000D00E50C75F03BA4C50CAAF075F000A4D1
:100673002AFA75F03BE50DA42AF50DE50D3395E057
:10068300F50EF50F7808790C120147740355C678F7
:100693000812012E85080C85090D850A0E850B0F9E
:1006A300850C08850D09850E0A850F0B90F2557888
:1006B3000812015A90F259780C12011970D67F086A
:0306C3000201E051
:04000005000000FCFB
:00000001FF
