:020000040000FA
:030000000200D328
:0300430002062E84
:0300530002058B18
:100083000206E300000080FB1200E2B90003020055
:10009300CDE490F1FF787D79018002F0A3D8FCD9FB
:1000A300FA90F27BAA82AB839000E5780579018010
:1000B30015E493A3AC82AD838A828B83F0A3AA82D7
:1000C300AB838C828D83D8E9D9E712036A12008649
:1000D30075D0007581BF7510FF7511F102008B7922
:1000E300012201001001CAC0E0E6F0A308DAFAD049
:1000F300E0FA22700422600D18C6C333C608C63363
:10010300C6D5E0F41822C0D0251010AF08F5105062
:100113000205118008F51050020511D2AFD0D0228C
:100123002510F58210AF08F510400215118008F56F
:100133001040021511D2AF851183222510F582E4F8
:100143003511F583222510C582C0E0E51134FFC5C2
:1001530083C0E0E510C3958224F9F8E4C5A885833C
:1001630011858210C5A8E8CEF0A3E520F0A3780896
:10017300E608F0A3DEFAEFF0A3E58124FBF8E60836
:10018300F0A3E608F0A30808E608F0A3E608F0A346
:1001930015811581D0E0FED0E0F815811581E8C006
:1001A300E0EEC0E022851183851082E0A3FEE0A388
:1001B300F5207808E0A3F608DFFAE0A3FFE0A3C088
:1001C300E0E0A3C0E0E0A3C0E0E0A3C0E0E4C5A892
:1001D300858210858311C5A8D083D08222740280C2
:1001E30000C0E0F404120123D0E01200E922C0822F
:1001F300C0838A828B83A3A3A3A3A3A3A3E054FCFA
:10020300F08A828B83A3A3A3A3A3A3A3E0C2E2F0F8
:100213008A828B83A3A3A3A3A3A3A3E0C2E3F08A4D
:10022300828B83A3A3A3A3A3A3E054E044138A82F2
:100233008B83A3A3A3A3A3A3F08A828B83A3A3A3E8
:10024300A3A3A3E0549FF08A828B83A3A3A3A3A3B6
:10025300A3E0C2E7F0741069707F7DF1ED8A828BB1
:1002630083F074FF8A828B83A3F074DF8A828B838B
:10027300A3A3F074D98A828B83A3A3A3F08A828B6E
:1002830083A3A3A3A3E0541F44208A828B83A3A345
:10029300A3A3F08A828B83A3A3A3A3E054E0F07407
:1002A3001B8A828B83A3A3A3A3A3F08A828B83A33A
:1002B300A3A3A3A3A3A3E0543F44408A828B83A3B5
:1002C300A3A3A3A3A3A3F08A828B83A3A3A3A3A320
:1002D300A3A3E054CFF002035D742069707C74DF44
:1002E3008A828B83F074D98A828B83A3F07DF1EDAC
:1002F3008A828B83A3A3F074FF8A828B83A3A3A335
:10030300F08A828B83A3A3A3A3E0541F44808A8231
:100313008B83A3A3A3A3F08A828B83A3A3A3A3E0CA
:1003230054E0F0741D8A828B83A3A3A3A3A3F08A52
:10033300828B83A3A3A3A3A3A3A3E0543FF08A8246
:100343008B83A3A3A3A3A3A3A3E054CF44108A82C4
:100353008B83A3A3A3A3A3A3A3F0EBFDEDF5D3EAA0
:10036300F5D2D083D08222740090F21CF0801D74E9
:10037300CCC0E090F21CE07900241DF582E934F250
:10038300F583D0E0F090F21CE02401F090F21CE041
:10039300C3941E40DA740590DF04F0740390DF0603
:1003A300F0740E90DF07F0742190DF09F07465900C
:1003B300DF0AF0746A90DF0BF0740E90DF0CF074B8
:1003C3003B90DF0DF0747390DF0EF0744290DF0FFB
:1003D300F0740090DF11F0743190DF13F074089023
:1003E300DF14F0741D90DF15F0741C90DF16F074A9
:1003F300C790DF17F0740090DF18F074B090DF1926
:10040300F074B690DF1AF074EA90DF1CF0742A904F
:10041300DF1DF0740090DF1EF0741F90DF1FF07477
:100423003190DF24F0740990DF25F074C290DF2E41
:10043300F0740090F21CF0801D74CCC0E090F21CAC
:10044300E07900244FF582E934F2F583D0E0F090AF
:10045300F21CE02401F090F21CE0C3941E40DA7415
:100463000090F26DF0740090F26EF0740190F26FF0
:10047300F0740090F270F0740090F271F0740090D8
:10048300F272F0740190F273F0740090F274F074ED
:100493000090F275F0742290F276F0740C90F2777B
:1004A300F07A6D7BF21207127900120B0074C755B4
:1004B300C64408F5C653F4C2E5F443FE3DE5FED257
:1004C30090D292D293D294D295439E10D2BAD2AF05
:1004D300759D0174FC559E4404F59E740190F23E93
:1004E300F0C293C294C29590F23CE0601CD2951284
:1004F300052AC295740090F23CF090F27EE0600908
:10050300740090F27EF01205D390F23EE060D812B0
:1005130006C4740090F23EF080CD43C9A0E5C963E0
:10052300C9F0E5C9790122C082C083740690F21D27
:10053300F090F27DE090F21EF090F21EE0D2E0F037
:1005430090F23BE090F21FF0740290F220F090F2F0
:100553007BA3E0F9E990F221F090F27BE090F222A4
:10056300F07C3F7DF27A1D7BF2120650E964017044
:100573001290F27BE02401F0A3E03400F012051D99
:10058300E960FAD083D08222C0E0C0D0C082C083A9
:10059300639001E59090F23BE02401F090F23BE0A0
:1005A300640A700E740190F23CF0740090F23BF018
:1005B300800E90F23BE064017006740190F23EF00D
:1005C30090F23DE02401F0D083D082D0D0D0E0324D
:1005D30074F7120148740290F24FF0740590F250D0
:1005E300F090F27BA3E0F9E990F251F090F27BE016
:1005F30090F252F074FF90F253F074FF90F254F0C3
:1006030075081E75090078081201E075084F750911
:10061300F278081201E07C007A477BF27900120934
:100623003374041201097F020201A8C0E0C0D0C0E4
:1006330082C083C2C0E5D1A2E05009740190F27E6A
:10064300F053D1FED083D082D0D0D0E03274F712F1
:100653000148EAFEEBFFECFAEDFB741090F27AF03E
:1006630079101201F17401459AFA8A9A759110D2A0
:10067300AF7A0080278A08750900EE2508F582EF16
:100683003509F583E0C0E08A08750900E50824FF11
:10069300F582E50934F1F583D0E0F00A8E828F8389
:1006A300E0C39A50D043D60275E10390F278E0603C
:1006B300FA740090F278F043D68079017F02020148
:1006C300A8C082C08375E10490DF3BE0640170F849
:1006D30075E10190DF3BE0640170F8D083D08222A2
:1006E300C0E0C0D0C082C08375E9EF539BFCE59B9B
:1006F30090F27AE064207008740190F279F0800639
:10070300740190F278F0D083D082D0D0D0E032C0A0
:1007130082C08374FE55F14402F5F18A828B83E033
:10072300700743F33CE5F3800543F4F0E5F453BE6F
:10073300FBE5BEA2E650FA53C6B8E5C6E5C6A2E697
:1007430040FA43BE048A828B83E060030208428A34
:10075300828B83A3A3A3A3A3A3A3A3A3E0F5C28A2A
:10076300828B83A3A3A3A3A3A3A3A3A3A374E055EF
:10077300C5FCE04CF5C54386808A828B83A374FE57
:1007830055C4FCE04CF5C48A828B83A3A3E0C33336
:10079300C0E074FD55C4FCD0E04CF5C48A828B8361
:1007A300A3A3A3E0333354FCC0E074FB55C4FCD0D3
:1007B300E04CF5C48A828B83A3A3A3A3E033333332
:1007C30054F8C0E074F755C4FCD0E04CF5C48A82F9
:1007D3008B83A3A3A3A3A3E0C454F0C0E074EF5599
:1007E300C4FCD0E04CF5C48A828B83A3A3A3A3A348
:1007F300A3E0C43354E0C0E074DF55C4FCD0E04C44
:10080300F5C48A828B83A3A3A3A3A3A3A3E0C433C6
:100813003354C0C0E074BF55C4FCD0E04CF5C48A67
:10082300828B83A3A3A3A3A3A3A3A3E0C43354E012
:10083300C0E074DF55C5FAD0E04AF5C502092E8A37
:10084300828B83A3A3A3A3A3A3A3A3A3E0F5FA8A01
:10085300828B83A3A3A3A3A3A3A3A3A3A374E055FE
:10086300FCFCE04CF5FCD2FF8A828B83A374FE551B
:10087300FBFCE04CF5FB8A828B83A3A3E0C333C06C
:10088300E074FD55FBFCD0E04CF5FB8A828B83A31F
:10089300A3A3E0333354FCC0E074FB55FBFCD0E06E
:1008A3004CF5FB8A828B83A3A3A3A3E03333335496
:1008B300F8C0E074F755FBFCD0E04CF5FB8A828B63
:1008C30083A3A3A3A3A3E0C454F0C0E074EF55FB38
:1008D300FCD0E04CF5FB8A828B83A3A3A3A3A3A341
:1008E300E0C43354E0C0E074DF55FBFCD0E04CF5CA
:1008F300FB8A828B83A3A3A3A3A3A3A3E0C4333361
:1009030054C0C0E074BF55FBFCD0E04CF5FB8A82B9
:100913008B83A3A3A3A3A3A3A3A3E0C43354E0C0E3
:10092300E074DF55FCFAD0E04AF5FCD083D0822294
:1009330074F5120148740B12013EE0FEA3E0FF744C
:100943000D12013EE0F508A3E0F5098E828F83A323
:10095300E583F582E5828A828B83F08E828F83A37F
:10096300E5828A828B83A3F0E9701574DF8A828B18
:1009730083A3A3F074C18A828B83A3A3A3F0801300
:1009830074DF8A828B83A3A3F074F98A828B83A397
:10099300A3A3F074FF250874FF3509F50BE50BF5E8
:1009A3000AE50A541FC0E08A828B83A3A3A3A3E0B2
:1009B30054E0FDD0E04D8A828B83A3A3A3A3F0E58B
:1009C3000824FF8A828B83A3A3A3A3A3F08A828B29
:1009D30083A3A3A3A3E0541F44408A828B83A3A3CE
:1009E300A3A3F08A828B83A3A3A3A3A3A3E0C2E759
:1009F300F08A828B83A3A3A3A3A3A3E0549FF075E0
:100A0300F002E9A4240F541FC0E08A828B83A3A3BE
:100A1300A3A3A3A3E054E0FDD0E04D8A828B83A37C
:100A2300A3A3A3A3A3F08A828B83A3A3A3A3A3A3B8
:100A3300A3E0543F44408A828B83A3A3A3A3A3A32D
:100A4300A3F08A828B83A3A3A3A3A3A3A3E054CF7E
:100A5300F08A828B83A3A3A3A3A3A3A3E0D2E3F08F
:100A63008A828B83A3A3A3A3A3A3A3E0C2E2F08AF6
:100A7300828B83A3A3A3A3A3A3A3E054FCF0ECC39F
:100A83009401500F8B09E509F508E508F5D5EAF55A
:100A9300D4800D8B09E509F508E508F5D3EAF5D20D
:100AA300750801750900EC78081200F6E508541F73
:100AB300F5D6000000000000000000000000000068
:100AC3000000000000000000000000000000000023
:100AD300000000000000000000000000000000D241
:100AE300AFD2B8C2C0E970098E828F83E0F5C180AE
:100AF300078E828F83E0F5F97F040201A8E9600D78
:100B030043C640E5BEA2E550FA43BE042253BEFBF2
:100B1300E5BEA2E650FA0053C680E5C643BE0422F2
:04000005000000D324
:00000001FF
