:020000040000FA
:030000000200D328
:0300530002051093
:100083000205D900000080FB1200E2B90003020060
:10009300CDE490F1FF785279018002F0A3D8FCD926
:1000A300FA90F250AA82AB839000E5780C79018034
:1000B30015E493A3AC82AD838A828B83F0A3AA82D7
:1000C300AB838C828D83D8E9D9E71203681200864B
:1000D30075D0007581BF7510FF7511F102008B7922
:1000E3000122010010FFFFFFFF00000000E0667027
:1000F3001008A3E066700A08A3E066700408A3E092
:1001030066226016080808C6C313C618C613C618A5
:10011300C613C618C613C6D5E0EA22E627F60809B1
:10012300E637F60809E637F60809E637F622E02649
:10013300F608A3E036F608A3E036F608A3E036F6A1
:1001430022700422600D18C6C333C608C633C6D551
:10015300E0F418222510C582C0E0E51134FFC58301
:10016300C0E0E510C3958224F9F8E4C5A88583119E
:10017300858210C5A8E8CEF0A3E520F0A37808E6B1
:1001830008F0A3DEFAEFF0A3E58124FBF8E608F01C
:10019300A3E608F0A30808E608F0A3E608F0A31511
:1001A300811581D0E0FED0E0F815811581E8C0E02B
:1001B300EEC0E022851183851082E0A3FEE0A3F563
:1001C300207808E0A3F608DFFAE0A3FFE0A3C0E08D
:1001D300E0A3C0E0E0A3C0E0E0A3C0E0E4C5A885DD
:1001E3008210858311C5A8D083D08222C082C083A8
:1001F3008A828B83A3A3A3A3A3A3A3E054FCF08AC3
:10020300828B83A3A3A3A3A3A3A3E0C2E2F08A8266
:100213008B83A3A3A3A3A3A3A3E0C2E3F08A828B4C
:1002230083A3A3A3A3A3A3E054E044138A828B83F1
:10023300A3A3A3A3A3A3F08A828B83A3A3A3A3A3B0
:10024300A3E0549FF08A828B83A3A3A3A3A3A3E079
:10025300C2E7F0741069707F7DF1ED8A828B83F0C1
:1002630074FF8A828B83A3F074DF8A828B83A3A3B8
:10027300F074D98A828B83A3A3A3F08A828B83A38E
:10028300A3A3A3E0541F44208A828B83A3A3A3A325
:10029300F08A828B83A3A3A3A3E054E0F074198AAA
:1002A300828B83A3A3A3A3A3F08A828B83A3A3A399
:1002B300A3A3A3A3E0543F44408A828B83A3A3A3B5
:1002C300A3A3A3A3F08A828B83A3A3A3A3A3A3A320
:1002D300E054CFF002035B742069707C74DF8A8280
:1002E3008B83F074D98A828B83A3F07DF1ED8A82AC
:1002F3008B83A3A3F074FF8A828B83A3A3A3F08AC7
:10030300828B83A3A3A3A3E0541F44808A828B839D
:10031300A3A3A3A3F08A828B83A3A3A3A3E054E0A4
:10032300F0741B8A828B83A3A3A3A3A3F08A828B7B
:1003330083A3A3A3A3A3A3A3E0543FF08A828B8345
:10034300A3A3A3A3A3A3A3E054CF44108A828B83C4
:10035300A3A3A3A3A3A3A3F0EBFDEDF5D3EAF5D2E7
:10036300D083D08222740090F21AF0801D74CCC026
:10037300E090F21AE07900241BF582E934F2F58368
:10038300D0E0F090F21AE02401F090F21AE0C39466
:100393001E40DA740590DF04F0741990DF06F074E0
:1003A3000E90DF07F0742490DF09F0742D90DF0ABC
:1003B300F074DD90DF0BF0740E90DF0CF074559049
:1003C300DF0DF0747390DF0EF0744390DF0FF07461
:1003D3001190DF10F0740090DF11F0742890DF1497
:1003E300F0741D90DF15F0741C90DF16F074C79045
:1003F300DF17F0740090DF18F074B090DF19F07419
:10040300B690DF1AF074EA90DF1CF0742A90DF1DB7
:10041300F0740090DF1EF0741F90DF1FF0743190B2
:10042300DF24F0740990DF25F0745090DF2EF07410
:100433000690DF31F079001206ADE960F879001219
:10044300060853C6C7E5C653F4F6E5F4D290D29333
:1004530043FE09E5FE439E10D2BAD2AF759D0374E5
:10046300FC559E4404F59E740190F23CF090F23AE0
:10047300E0600F120496E960FA1204A3740090F28C
:100483003AF090F23CE060E51205CD740090F23C46
:10049300F080DA43C9A0E5C963C9F0E5C97901224F
:1004A300C082C083740690F21BF090F252E090F287
:1004B3001CF090F21CE0D2E0F090F239E090F21DD3
:1004C300F0740890F21EF090F250A3E0F9E990F274
:1004D3001FF090F250E090F220F07C3D7DF27A1B09
:1004E3007BF2120553E96401701990F250E0240184
:1004F300F0A3E03400F0639001E590120496E970F4
:100503000780F8639008E590D083D08222C0E0C0D2
:10051300D0C082C08390F239E02401F090F239E038
:10052300C394095006740190F23AF090F239E0C393
:100533009409400C740090F239F0740190F23CF08D
:1005430090F23BE02401F0D083D082D0D0D0E032CF
:1005530074F7120157EAFEEBFFECFAEDFB7410900F
:10056300F24FF079101201EF7401459AFA8A9A75E5
:100573009110D2AF7A0080278A08750900EE25080A
:10058300F582EF3509F583E0C0E08A08750900E5D7
:100593000824FFF582E50934F1F583D0E0F00AEA97
:1005A300C0E08E828F83E0FBD0E0C39B40CA43D67A
:1005B3000275E10390F24DE060FA740090F24DF0A1
:1005C30043D68079017F020201B775E10475E10129
:1005D300790112062B22C0E0C0D0C082C08353E948
:1005E300EF539BFCE59B90F24FE06420700874018D
:1005F30090F24EF08006740190F24DF0D083D082D9
:10060300D0D0D0E032E9600D43C640E5BEA2E5504C
:10061300FA43BE042253BEFBE5BEA2E650FA0053E2
:10062300C680E5C643BE042274F1120157E9FAEA13
:1006330060738A0875090074077808120144E4F5A9
:100643000AF50BEAF50C750D00E50C75F03BA4C536
:100653000CABF075F000A42BFB75F03BE50DA42B60
:10066300F50DE50D3395E0F50EF50F7808790C12CD
:10067300011E740355C6780812010585080C850907
:100683000D850A0E850B0F850C08850D09850E0A4D
:10069300850F0B90F253780812013190F257780CC2
:1006A3001200F070D67F080201B7E9FA74FC55C94D
:0E06B3004AF5C974FB55C94408F5C9790122FE
:04000005000000D324
:00000001FF
