:020000040000FA
:030000000200D328
:030043000206258D
:0300530002058320
:100083000206E000000080FB1200E2B90003020058
:10009300CDE490F1FF787D79018002F0A3D8FCD9FB
:1000A300FA90F27BAA82AB839000E5780579018010
:1000B30015E493A3AC82AD838A828B83F0A3AA82D7
:1000C300AB838C828D83D8E9D9E712036A12008649
:1000D30075D0007581BF7510FF7511F102008B7922
:1000E300012201001001CAC0E0E6F0A308DAFAD049
:1000F300E0FA22700422600D18C6C333C608C63363
:10010300C6D5E0F41822C0D0251010AF08F5105062
:100113000205118008F51050020511D2AFD0D0228C
:100123002510F58210AF08F510400215118008F56F
:100133001040021511D2AF851183222510F582E4F8
:100143003511F583222510C582C0E0E51134FFC5C2
:1001530083C0E0E510C3958224F9F8E4C5A885833C
:1001630011858210C5A8E8CEF0A3E520F0A3780896
:10017300E608F0A3DEFAEFF0A3E58124FBF8E60836
:10018300F0A3E608F0A30808E608F0A3E608F0A346
:1001930015811581D0E0FED0E0F815811581E8C006
:1001A300E0EEC0E022851183851082E0A3FEE0A388
:1001B300F5207808E0A3F608DFFAE0A3FFE0A3C088
:1001C300E0E0A3C0E0E0A3C0E0E0A3C0E0E4C5A892
:1001D300858210858311C5A8D083D08222740280C2
:1001E30000C0E0F404120123D0E01200E922C0822F
:1001F300C0838A828B83A3A3A3A3A3A3A3E054FCFA
:10020300F08A828B83A3A3A3A3A3A3A3E0C2E2F0F8
:100213008A828B83A3A3A3A3A3A3A3E0C2E3F08A4D
:10022300828B83A3A3A3A3A3A3E054E044138A82F2
:100233008B83A3A3A3A3A3A3F08A828B83A3A3A3E8
:10024300A3A3A3E0549FF08A828B83A3A3A3A3A3B6
:10025300A3E0C2E7F0741069707F7DF1ED8A828BB1
:1002630083F074FF8A828B83A3F074DF8A828B838B
:10027300A3A3F074D98A828B83A3A3A3F08A828B6E
:1002830083A3A3A3A3E0541F44208A828B83A3A345
:10029300A3A3F08A828B83A3A3A3A3E054E0F07407
:1002A3001B8A828B83A3A3A3A3A3F08A828B83A33A
:1002B300A3A3A3A3A3A3E0543F44408A828B83A3B5
:1002C300A3A3A3A3A3A3F08A828B83A3A3A3A3A320
:1002D300A3A3E054CFF002035D742069707C74DF44
:1002E3008A828B83F074D98A828B83A3F07DF1EDAC
:1002F3008A828B83A3A3F074FF8A828B83A3A3A335
:10030300F08A828B83A3A3A3A3E0541F44808A8231
:100313008B83A3A3A3A3F08A828B83A3A3A3A3E0CA
:1003230054E0F0741D8A828B83A3A3A3A3A3F08A52
:10033300828B83A3A3A3A3A3A3A3E0543FF08A8246
:100343008B83A3A3A3A3A3A3A3E054CF44108A82C4
:100353008B83A3A3A3A3A3A3A3F0EBFDEDF5D3EAA0
:10036300F5D2D083D08222740090F21CF0801D74E9
:10037300CCC0E090F21CE07900241DF582E934F250
:10038300F583D0E0F090F21CE02401F090F21CE041
:10039300C3941E40DA740590DF04F0742090DF06E6
:1003A300F0740E90DF07F0742190DF09F07465900C
:1003B300DF0AF0746A90DF0BF0740E90DF0CF074B8
:1003C3003B90DF0DF0747390DF0EF0744290DF0FFB
:1003D300F0740090DF11F0743590DF13F07408901F
:1003E300DF14F0741D90DF15F0741C90DF16F074A9
:1003F300C790DF17F0740090DF18F074B090DF1926
:10040300F074B690DF1AF074EA90DF1CF0742A904F
:10041300DF1DF0740090DF1EF0741F90DF1FF07477
:100423003190DF24F0740990DF25F074C290DF2E41
:10043300F0740690DF31F0740090F21CF0801D74AC
:10044300CCC0E090F21CE07900244FF582E934F24D
:10045300F583D0E0F090F21CE02401F090F21CE070
:10046300C3941E40DA740090F26DF0740090F26E43
:10047300F0740190F26FF0740090F270F0740090D9
:10048300F271F0740090F272F0740190F273F074F0
:100493000090F274F0740090F275F0742290F2768A
:1004A300F0740C90F277F07A6D7BF21207117900F9
:1004B300120AFF74C755C64410F5C653F4F6E5F4A3
:1004C300D290D29343FE09E5FE439E10D2BAD2AF37
:1004D300759D0174FC559E4404F59E740190F23E93
:1004E300F0D29090F23CE06018120522740090F272
:1004F3003CF090F27EE06009740090F27EF0120509
:10050300C590F23EE060DC1206C1740090F23EF04A
:1005130080D143C9A0E5C963C9F0E5C9790122C007
:1005230082C083740690F21DF090F27DE090F21E7B
:10053300F090F21EE0D2E0F090F23BE090F21FF078
:10054300740590F220F090F27BA3E0F9E990F22198
:10055300F090F27BE090F222F07C3F7DF27A1D7BFB
:10056300F2120647E96401701290F27BE02401F075
:10057300A3E03400F0120515E960FAD083D082229B
:10058300C0E0C0D0C082C08390F23BE02401F09071
:10059300F23BE064017006740190F23CF090F23B90
:1005A300E0C39406400C740090F23BF0740190F2A7
:1005B3003EF090F23DE02401F0D083D082D0D0D041
:1005C300E03274F7120148740290F24FF074059010
:1005D300F250F090F27BA3E0F9E990F251F090F23F
:1005E3007BE090F252F074FF90F253F074FF90F2BC
:1005F30054F0639001E59075081E750900780812A0
:1006030001E075084F7509F278081201E07C007A61
:10061300477BF2790012093274041201097F020246
:1006230001A8C0E0C0D0C082C083C2C0E5D1A2E0AF
:100633005009740190F27EF053D1FED083D082D062
:10064300D0D0E03274F7120148EAFEEBFFECFAED8A
:10065300FB741090F27AF079101201F17401459A4B
:10066300FA8A9A759110D2AF7A0080278A087509A1
:1006730000EE2508F582EF3509F583E0C0E08A082E
:10068300750900E50824FFF582E50934F1F583D007
:10069300E0F00AEAC0E08E828F83E0FBD0E0C39BE8
:1006A30040CA43D60275E10390F278E060FA740021
:1006B30090F278F043D68079017F020201A8C082CC
:1006C300C08375E10490DF3BE0640170F875E101DC
:1006D30090DF3BE0640C60F8D083D08222C0E0C09E
:1006E300D0C082C083D29075E9EF539BFCE59B9009
:1006F300F27AE064207008740190F279F080067455
:100703000190F278F0D083D082D0D0D0E032C08292
:10071300C08374FE55F14402F5F18A828B83E07045
:100723000743F33CE5F3800543F4F0E5F453BEFBE4
:10073300E5BEA2E650FA53C6B8E5C6E5C6A2E64052
:10074300FA43BE048A828B83E060030208418A82F3
:100753008B83A3A3A3A3A3A3A3A3A3E0F5C28A822A
:100763008B83A3A3A3A3A3A3A3A3A3A374E055C5AC
:10077300FCE04CF5C54386808A828B83A374FE55C7
:10078300C4FCE04CF5C48A828B83A3A3E0C333C0CB
:10079300E074FD55C4FCD0E04CF5C48A828B83A37E
:1007A300A3A3E0333354FCC0E074FB55C4FCD0E096
:1007B3004CF5C48A828B83A3A3A3A3E033333354BE
:1007C300F8C0E074F755C4FCD0E04CF5C48A828BC2
:1007D30083A3A3A3A3A3E0C454F0C0E074EF55C460
:1007E300FCD0E04CF5C48A828B83A3A3A3A3A3A369
:1007F300E0C43354E0C0E074DF55C4FCD0E04CF5F2
:10080300C48A828B83A3A3A3A3A3A3A3E0C4333388
:1008130054C0C0E074BF55C4FCD0E04CF5C48A8218
:100823008B83A3A3A3A3A3A3A3A3E0C43354E0C0D4
:10083300E074DF55C5FAD0E04AF5C502092D8A8276
:100843008B83A3A3A3A3A3A3A3A3A3E0F5FA8A8201
:100853008B83A3A3A3A3A3A3A3A3A3A374E055FC84
:10086300FCE04CF5FCD2FF8A828B83A374FE55FB1C
:10087300FCE04CF5FB8A828B83A3A3E0C333C0E087
:1008830074FD55FBFCD0E04CF5FB8A828B83A3A35C
:10089300A3E0333354FCC0E074FB55FBFCD0E04CC5
:1008A300F5FB8A828B83A3A3A3A3E033333354F8EA
:1008B300C0E074F755FBFCD0E04CF5FB8A828B83D8
:1008C300A3A3A3A3A3E0C454F0C0E074EF55FBFCBF
:1008D300D0E04CF5FB8A828B83A3A3A3A3A3A3E05D
:1008E300C43354E0C0E074DF55FBFCD0E04CF5FBAF
:1008F3008A828B83A3A3A3A3A3A3A3E0C433335408
:10090300C0C0E074BF55FBFCD0E04CF5FB8A828B82
:1009130083A3A3A3A3A3A3A3A3E0C43354E0C0E08E
:1009230074DF55FCFAD0E04AF5FCD083D082227400
:10093300F5120148740B12013EE0FEA3E0FF740DB3
:1009430012013EE0F508A3E0F5098E828F83A3E54B
:1009530083F582E5828A828B83F08E828F83A3E57F
:10096300828A828B83A3F0E9701574DF8A828B837A
:10097300A3A3F074C18A828B83A3A3A3F08013740F
:10098300DF8A828B83A3A3F074F98A828B83A3A368
:10099300A3F074FF250874FF3509F50BE50BF50A81
:1009A300E50A541FC0E08A828B83A3A3A3A3E05468
:1009B300E0FDD0E04D8A828B83A3A3A3A3F0E508D7
:1009C30024FF8A828B83A3A3A3A3A3F08A828B83AE
:1009D300A3A3A3A3E0541F44408A828B83A3A3A3AE
:1009E300A3F08A828B83A3A3A3A3A3A3E0C2E7F00C
:1009F3008A828B83A3A3A3A3A3A3E0549FF075F0E0
:100A030002E9A4240F541FC0E08A828B83A3A3A30B
:100A1300A3A3A3E054E0FDD0E04D8A828B83A3A37C
:100A2300A3A3A3A3F08A828B83A3A3A3A3A3A3A3B8
:100A3300E0543F44408A828B83A3A3A3A3A3A3A32D
:100A4300F08A828B83A3A3A3A3A3A3A3E054CFF031
:100A53008A828B83A3A3A3A3A3A3A3E0D2E3F08AF5
:100A6300828B83A3A3A3A3A3A3A3E0C2E2F08A82FE
:100A73008B83A3A3A3A3A3A3A3E054FCF0ECC3948D
:100A830001500F8B09E509F508E508F5D5EAF5D41A
:100A9300800D8B09E509F508E508F5D3EAF5D2756C
:100AA3000801750900EC78081200F6E508541FF5F3
:100AB300D60000000000000000000000000000005D
:100AC3000000000000000000000000000000000023
:100AD3000000000000000000000000000000D2AF92
:100AE300D2B8C2C0E970098E828F83E0F5C1800756
:100AF3008E828F83E0F5F97F040201A8E9600D433C
:100B0300C640E5BEA2E550FA43BE042253BEFBE550
:0F0B1300BEA2E650FA0053C680E5C643BE0422D8
:04000005000000D324
:00000001FF
