:020000040000FA
:030000000200FCFF
:0300430002064E64
:030053000205ACF7
:1000830002070900000080FB12010BB90003020004
:10009300F6E490F1FF787D79018002F0A3D8FCD9D2
:1000A300FA90F27BAA82AB8390010E7805790180E6
:1000B30015E493A3AC82AD838A828B83F0A3AA82D7
:1000C300AB838C828D83D8E9D9E790F1FFAA82AB09
:1000D3008390010E780179018015E493A3AC82AD7E
:1000E300838A828B83F0A3AA82AB838C828D83D88D
:1000F300E9D9E712039312008675D0007581C075A4
:1001030010FF7511F102008B79012201001001CA61
:10011300C0E0E6F0A308DAFAD0E0FA227004226025
:100123000D18C6C333C608C633C6D5E0F41822C0BB
:10013300D0251010AF08F510500205118008F510F6
:1001430050020511D2AFD0D0222510F58210AF088E
:10015300F510400215118008F51040021511D2AFB9
:10016300851183222510F582E43511F583222510AC
:10017300C582C0E0E51134FFC583C0E0E510C39537
:100183008224F9F8E4C5A8858311858210C5A8E8FF
:10019300CEF0A3E520F0A37808E608F0A3DEFAEF9B
:1001A300F0A3E58124FBF8E608F0A3E608F0A30832
:1001B30008E608F0A3E608F0A315811581D0E0FE58
:1001C300D0E0F815811581E8C0E0EEC0E02285118A
:1001D30083851082E0A3FEE0A3F5207808E0A3F670
:1001E30008DFFAE0A3FFE0A3C0E0E0A3C0E0E0A3E0
:1001F300C0E0E0A3C0E0E4C5A8858210858311C5F3
:10020300A8D083D0822274028000C0E0F4041201DB
:100213004CD0E012011222C082C0838A828B83A356
:10022300A3A3A3A3A3A3E054FCF08A828B83A3A379
:10023300A3A3A3A3A3E0C2E2F08A828B83A3A3A315
:10024300A3A3A3A3E0C2E3F08A828B83A3A3A3A304
:10025300A3A3E054E044138A828B83A3A3A3A3A3A1
:10026300A3F08A828B83A3A3A3A3A3A3E0549FF049
:100273008A828B83A3A3A3A3A3A3E0C2E7F0741092
:1002830069707F79F1E98A828B83F074FF8A828BAC
:1002930083A3F074DF8A828B83A3A3F074D98A8249
:1002A3008B83A3A3A3F08A828B83A3A3A3A3E0548A
:1002B3001F44208A828B83A3A3A3A3F08A828B8308
:1002C300A3A3A3A3E054E0F0741B8A828B83A3A3AC
:1002D300A3A3A3F08A828B83A3A3A3A3A3A3A3E0D3
:1002E300543F44408A828B83A3A3A3A3A3A3A3F075
:1002F3008A828B83A3A3A3A3A3A3A3E054CFF00277
:100303000386742069707C74DF8A828B83F074D9CE
:100313008A828B83A3F079F1E98A828B83A3A3F08A
:1003230074FF8A828B83A3A3A3F08A828B83A3A304
:10033300A3A3E0541F44808A828B83A3A3A3A3F0C7
:100343008A828B83A3A3A3A3E054E0F0741D8A8263
:100353008B83A3A3A3A3A3F08A828B83A3A3A3A3C7
:10036300A3A3A3E0543FF08A828B83A3A3A3A3A3F5
:10037300A3A3E054CF44108A828B83A3A3A3A3A394
:10038300A3A3F0EBF9E9F5D3EAF5D2D083D0822227
:10039300740090F21CF0801D74CCC0E090F21CE05D
:1003A3007900241DF582E934F2F583D0E0F090F270
:1003B3001CE02401F090F21CE0C3941E40DA7405A3
:1003C30090DF04F0742090DF06F0740E90DF07F0E6
:1003D300742190DF09F0746590DF0AF0746A90DF8E
:1003E3000BF0740E90DF0CF0743B90DF0DF0747320
:1003F30090DF0EF0744290DF0FF0740090DF11F085
:10040300743590DF13F0740890DF14F0741D90DFDF
:1004130015F0741C90DF16F074C790DF17F07400AA
:1004230090DF18F074B090DF19F074B690DF1AF013
:1004330074EA90DF1CF0742A90DF1DF0740090DFE3
:100443001EF0741F90DF1FF0743190DF24F07409E5
:1004530090DF25F074C290DF2EF0740690DF31F048
:10046300740090F21CF0801D74CCC0E090F21CE08C
:100473007900244FF582E934F2F583D0E0F090F26D
:100483001CE02401F090F21CE0C3941E40DA7400D7
:1004930090F26DF0740090F26EF0740190F26FF0D0
:1004A300740090F270F0740090F271F0740090F2A6
:1004B30072F0740190F273F0740090F274F07400AF
:1004C30090F275F0742290F276F0740C90F277F05B
:1004D3007A6D7BF212073A7900120B2374C755C663
:1004E3004408F5C653F4F6E5F4D290D29343FE09DB
:1004F300E5FE439E10D2BAD2AF759D0174FC559EA2
:100503004404F59E740190F23EF0D29090F23CE0E8
:10051300601812054B740090F23CF090F27EE0609C
:1005230009740090F27EF01205EE90F23EE060DC7A
:100533001206EA740090F23EF080D143C9A0E5C9E7
:1005430063C9F0E5C9790122C082C083740690F2C1
:100553001DF090F27DE090F21EF090F21EE0D2E0EA
:10056300F090F23BE090F21FF0740790F220F090CD
:10057300F27BA3E0F9E990F221F090F27BE090F2B4
:1005830022F07C3F7DF27A1D7BF2120670E9640152
:10059300701290F27BE02401F0A3E03400F0120526
:1005A3003EE960FAD083D08222C0E0C0D0C082C0CE
:1005B3008390F23BE02401F090F23BE0640170068B
:1005C300740190F23CF090F23BE0C39408400C7449
:1005D3000090F23BF0740190F23EF090F23DE02483
:1005E30001F0D083D082D0D0D0E03274F712017101
:1005F300740290F24FF0740590F250F090F27BA3E6
:10060300E0F9E990F251F090F27BE090F252F0744D
:10061300FF90F253F074FF90F254F0639001E59071
:1006230075081E750900780812020975084F7509C7
:10063300F278081202097C007A477BF279001209EA
:100643005B74041201327F020201D1C0E0C0D0C04A
:1006530082C083C2C0E5D1A2E05009740190F27E4A
:10066300F053D1FED083D082D0D0D0E03274F712D1
:100673000171EAFEEBFFECFAEDFB741090F27AF0F5
:10068300791012021A7401459AFA8A9A759110D256
:10069300AF7B0080278B08750900EE2508F582EFF4
:1006A3003509F583E0C0E08B08750900E50824FFF0
:1006B300F582E50934F1F583D0E0F00BEBC0E08E71
:1006C300828F83E0FAD0E0C39A40CA43D60275E131
:1006D3000390F278E060FA740090F278F043D680E9
:1006E30079017F020201D1C082C08375E10490DFEA
:1006F3003BE0640170F875E10190DF3BE0640C605E
:10070300F8D083D08222C0E0C0D0C082C083D29010
:1007130075E9EF539BFCE59B90F27AE06420700847
:10072300740190F279F08006740190F278F0D0832E
:10073300D082D0D0D0E032C082C08374FE55F14461
:1007430002F5F18A828B83E0700743F33CE5F38083
:100753000543F4F0E5F453BEFBE5BEA2E650FA53BD
:10076300C6B8E5C6E5C6A2E640FA43BE048A828B54
:1007730083E0600302086A8A828B83A3A3A3A3A3F3
:10078300A3A3A3A3E0F5C28A828B83A3A3A3A3A3FA
:10079300A3A3A3A3A374E055C5FCE04CF5C543860E
:1007A300808A828B83A374FE55C4FCE04CF5C48A13
:1007B300828B83A3A3E0C333C0E074FD55C4FCD094
:1007C300E04CF5C48A828B83A3A3A3E0333354FCA8
:1007D300C0E074FB55C4FCD0E04CF5C48A828B8323
:1007E300A3A3A3A3E033333354F8C0E074F755C491
:1007F300FCD0E04CF5C48A828B83A3A3A3A3A3E01C
:10080300C454F0C0E074EF55C4FCD0E04CF5C48A86
:10081300828B83A3A3A3A3A3A3E0C43354E0C0E0C8
:1008230074DF55C4FCD0E04CF5C48A828B83A3A348
:10083300A3A3A3A3A3E0C4333354C0C0E074BF5540
:10084300C4FCD0E04CF5C48A828B83A3A3A3A3A3E7
:10085300A3A3A3E0C43354E0C0E074DF55C5FAD0CA
:10086300E04AF5C50209568A828B83A3A3A3A3A3F7
:10087300A3A3A3A3E0F5FA8A828B83A3A3A3A3A3D1
:10088300A3A3A3A3A374E055FCFCE04CF5FCD2FFA7
:100893008A828B83A374FE55FBFCE04CF5FB8A82B2
:1008A3008B83A3A3E0C333C0E074FD55FBFCD0E00E
:1008B3004CF5FB8A828B83A3A3A3E0333354FCC0A0
:1008C300E074FB55FBFCD0E04CF5FB8A828B83A3E1
:1008D300A3A3A3E033333354F8C0E074F755FBFC10
:1008E300D0E04CF5FB8A828B83A3A3A3A3A3E0C42C
:1008F30054F0C0E074EF55FBFCD0E04CF5FB8A826A
:100903008B83A3A3A3A3A3A3E0C43354E0C0E074E5
:10091300DF55FBFCD0E04CF5FB8A828B83A3A3A3BA
:10092300A3A3A3A3E0C4333354C0C0E074BF55FBF7
:10093300FCD0E04CF5FB8A828B83A3A3A3A3A3A3E0
:10094300A3A3E0C43354E0C0E074DF55FCFAD0E065
:100953004AF5FCD083D0822274F7120171E9FEECD0
:10096300FF7409120167E0F8A3E0F9E8FCE9FD74FC
:100973000B120167E0F8A3E0F98C828D83A3E58372
:10098300F582E5828A828B83F08C828D83A3E58254
:100993008A828B83A3F0EE701574DF8A828B83A324
:1009A300A3F074C18A828B83A3A3A3F0801374DFA3
:1009B3008A828B83A3A3F074F98A828B83A3A3A374
:1009C300F074FF2874FF39F509E509F508E50854C3
:1009D3001FC0E08A828B83A3A3A3A3E054E0F5089E
:1009E300D0E045088A828B83A3A3A3A3F0E824FF66
:1009F3008A828B83A3A3A3A3A3F08A828B83A3A35B
:100A0300A3A3E0541F44408A828B83A3A3A3A3F030
:100A13008A828B83A3A3A3A3A3A3E0C2E7F08A8262
:100A23008B83A3A3A3A3A3A3E0549FF075F002EECB
:100A3300A4240F541FC0E08A828B83A3A3A3A3A380
:100A4300A3E054E0F8D0E0488A828B83A3A3A3A356
:100A5300A3A3F08A828B83A3A3A3A3A3A3A3E0549A
:100A63003F44408A828B83A3A3A3A3A3A3A3F08AB7
:100A7300828B83A3A3A3A3A3A3A3E054CFF08A826F
:100A83008B83A3A3A3A3A3A3A3E0D2E3F08A828BC4
:100A930083A3A3A3A3A3A3A3E0C2E2F08A828B83CD
:100AA300A3A3A3A3A3A3A3E054FCF0EFC394015017
:100AB3000AEBF9E9F5D5EAF5D48008EBF9E9F5D3C2
:100AC300EAF5D2750801750900EF780812011FE5F0
:100AD30008541FF5D60000000000000000000000CD
:100AE3000000000000000000000000000000000003
:100AF30000000000000000000000000000000000F3
:100B03000000D2AFD2B8C2C0EE70098C828D83E0F0
:100B1300F5C180078C828D83E0F5F97F020201D154
:100B2300E9600D43C640E5BEA2E550FA43BE042288
:100B330053BEFBE5BEA2E650FA0053C680E5C643AA
:030B4300BE0422CB
:04000005000000FCFB
:00000001FF
